{
	"data": {
		"bytecode": {
			"linkReferences": {},
			"object": "6080604052348015600e575f5ffd5b506040516109143803806109148339818101604052810190602e9190606c565b80600281905550506092565b5f5ffd5b5f819050919050565b604e81603e565b81146057575f5ffd5b50565b5f815190506066816047565b92915050565b5f60208284031215607e57607d603a565b5b5f608984828501605a565b91505092915050565b6108758061009f5f395ff3fe60806040526004361061007a575f3560e01c80636445a74d1161004d5780636445a74d146101385780637fc4eda814610174578063cf9618531461019e578063f894892d146101ba5761007a565b8063028b32c71461007e5780633234c956146100a85780634ae73cec146100e45780634eef27071461010e575b5f5ffd5b348015610089575f5ffd5b506100926101f6565b60405161009f91906105d4565b60405180910390f35b3480156100b3575f5ffd5b506100ce60048036038101906100c99190610627565b6101fc565b6040516100db919061067f565b60405180910390f35b3480156100ef575f5ffd5b506100f86102cb565b60405161010591906106b4565b60405180910390f35b348015610119575f5ffd5b506101226102db565b60405161012f91906106b4565b60405180910390f35b348015610143575f5ffd5b5061015e600480360381019061015991906106f7565b6102ee565b60405161016b9190610761565b60405180910390f35b34801561017f575f5ffd5b5061018861031d565b60405161019591906106b4565b60405180910390f35b6101b860048036038101906101b39190610627565b610322565b005b3480156101c5575f5ffd5b506101e060048036038101906101db9190610627565b6104f5565b6040516101ed9190610761565b60405180910390f35b60025481565b5f606461ffff168360ff1610158061021c5750606461ffff168260ff1610155b15610253576040517fb4120f1400000000000000000000000000000000000000000000000000000000815260040160405180910390fd5b5f73ffffffffffffffffffffffffffffffffffffffff165f5f6102768686610595565b61ffff1661ffff1681526020019081526020015f205f9054906101000a900473ffffffffffffffffffffffffffffffffffffffff1673ffffffffffffffffffffffffffffffffffffffff161415905092915050565b6064806102d891906107a7565b81565b60015f9054906101000a900461ffff1681565b5f602052805f5260405f205f915054906101000a900473ffffffffffffffffffffffffffffffffffffffff1681565b606481565b606461ffff168260ff161015806103415750606461ffff168160ff1610155b15610378576040517fb4120f1400000000000000000000000000000000000000000000000000000000815260040160405180910390fd5b60025434146103c257346002546040517f23b18f5f0000000000000000000000000000000000000000000000000000000081526004016103b99291906107e3565b60405180910390fd5b5f6103cd8383610595565b90505f73ffffffffffffffffffffffffffffffffffffffff165f5f8361ffff1661ffff1681526020019081526020015f205f9054906101000a900473ffffffffffffffffffffffffffffffffffffffff1673ffffffffffffffffffffffffffffffffffffffff161461046b576040517f6ea27c7a00000000000000000000000000000000000000000000000000000000815260040160405180910390fd5b335f5f8361ffff1661ffff1681526020019081526020015f205f6101000a81548173ffffffffffffffffffffffffffffffffffffffff021916908373ffffffffffffffffffffffffffffffffffffffff1602179055506001805f8282829054906101000a900461ffff160192506101000a81548161ffff021916908361ffff160217905550505050565b5f606461ffff168360ff161015806105155750606461ffff168260ff1610155b1561054c576040517fb4120f1400000000000000000000000000000000000000000000000000000000815260040160405180910390fd5b5f5f6105588585610595565b61ffff1661ffff1681526020019081526020015f205f9054906101000a900473ffffffffffffffffffffffffffffffffffffffff16905092915050565b5f8160ff1660648460ff166105aa91906107a7565b6105b4919061080a565b905092915050565b5f819050919050565b6105ce816105bc565b82525050565b5f6020820190506105e75f8301846105c5565b92915050565b5f5ffd5b5f60ff82169050919050565b610606816105f1565b8114610610575f5ffd5b50565b5f81359050610621816105fd565b92915050565b5f5f6040838503121561063d5761063c6105ed565b5b5f61064a85828601610613565b925050602061065b85828601610613565b9150509250929050565b5f8115159050919050565b61067981610665565b82525050565b5f6020820190506106925f830184610670565b92915050565b5f61ffff82169050919050565b6106ae81610698565b82525050565b5f6020820190506106c75f8301846106a5565b92915050565b6106d681610698565b81146106e0575f5ffd5b50565b5f813590506106f1816106cd565b92915050565b5f6020828403121561070c5761070b6105ed565b5b5f610719848285016106e3565b91505092915050565b5f73ffffffffffffffffffffffffffffffffffffffff82169050919050565b5f61074b82610722565b9050919050565b61075b81610741565b82525050565b5f6020820190506107745f830184610752565b92915050565b7f4e487b71000000000000000000000000000000000000000000000000000000005f52601160045260245ffd5b5f6107b182610698565b91506107bc83610698565b92508282026107ca81610698565b91508082146107dc576107db61077a565b5b5092915050565b5f6040820190506107f65f8301856105c5565b61080360208301846105c5565b9392505050565b5f61081482610698565b915061081f83610698565b9250828201905061ffff8111156108395761083861077a565b5b9291505056fea2646970667358221220382947e22893ff0ca93d39fbe16958bb63883088f7306b804d80341d5dd604aa64736f6c634300081e0033",
			"opcodes": "PUSH1 0x80 PUSH1 0x40 MSTORE CALLVALUE DUP1 ISZERO PUSH1 0xE JUMPI PUSH0 PUSH0 REVERT JUMPDEST POP PUSH1 0x40 MLOAD PUSH2 0x914 CODESIZE SUB DUP1 PUSH2 0x914 DUP4 CODECOPY DUP2 DUP2 ADD PUSH1 0x40 MSTORE DUP2 ADD SWAP1 PUSH1 0x2E SWAP2 SWAP1 PUSH1 0x6C JUMP JUMPDEST DUP1 PUSH1 0x2 DUP2 SWAP1 SSTORE POP POP PUSH1 0x92 JUMP JUMPDEST PUSH0 PUSH0 REVERT JUMPDEST PUSH0 DUP2 SWAP1 POP SWAP2 SWAP1 POP JUMP JUMPDEST PUSH1 0x4E DUP2 PUSH1 0x3E JUMP JUMPDEST DUP2 EQ PUSH1 0x57 JUMPI PUSH0 PUSH0 REVERT JUMPDEST POP JUMP JUMPDEST PUSH0 DUP2 MLOAD SWAP1 POP PUSH1 0x66 DUP2 PUSH1 0x47 JUMP JUMPDEST SWAP3 SWAP2 POP POP JUMP JUMPDEST PUSH0 PUSH1 0x20 DUP3 DUP5 SUB SLT ISZERO PUSH1 0x7E JUMPI PUSH1 0x7D PUSH1 0x3A JUMP JUMPDEST JUMPDEST PUSH0 PUSH1 0x89 DUP5 DUP3 DUP6 ADD PUSH1 0x5A JUMP JUMPDEST SWAP2 POP POP SWAP3 SWAP2 POP POP JUMP JUMPDEST PUSH2 0x875 DUP1 PUSH2 0x9F PUSH0 CODECOPY PUSH0 RETURN INVALID PUSH1 0x80 PUSH1 0x40 MSTORE PUSH1 0x4 CALLDATASIZE LT PUSH2 0x7A JUMPI PUSH0 CALLDATALOAD PUSH1 0xE0 SHR DUP1 PUSH4 0x6445A74D GT PUSH2 0x4D JUMPI DUP1 PUSH4 0x6445A74D EQ PUSH2 0x138 JUMPI DUP1 PUSH4 0x7FC4EDA8 EQ PUSH2 0x174 JUMPI DUP1 PUSH4 0xCF961853 EQ PUSH2 0x19E JUMPI DUP1 PUSH4 0xF894892D EQ PUSH2 0x1BA JUMPI PUSH2 0x7A JUMP JUMPDEST DUP1 PUSH4 0x28B32C7 EQ PUSH2 0x7E JUMPI DUP1 PUSH4 0x3234C956 EQ PUSH2 0xA8 JUMPI DUP1 PUSH4 0x4AE73CEC EQ PUSH2 0xE4 JUMPI DUP1 PUSH4 0x4EEF2707 EQ PUSH2 0x10E JUMPI JUMPDEST PUSH0 PUSH0 REVERT JUMPDEST CALLVALUE DUP1 ISZERO PUSH2 0x89 JUMPI PUSH0 PUSH0 REVERT JUMPDEST POP PUSH2 0x92 PUSH2 0x1F6 JUMP JUMPDEST PUSH1 0x40 MLOAD PUSH2 0x9F SWAP2 SWAP1 PUSH2 0x5D4 JUMP JUMPDEST PUSH1 0x40 MLOAD DUP1 SWAP2 SUB SWAP1 RETURN JUMPDEST CALLVALUE DUP1 ISZERO PUSH2 0xB3 JUMPI PUSH0 PUSH0 REVERT JUMPDEST POP PUSH2 0xCE PUSH1 0x4 DUP1 CALLDATASIZE SUB DUP2 ADD SWAP1 PUSH2 0xC9 SWAP2 SWAP1 PUSH2 0x627 JUMP JUMPDEST PUSH2 0x1FC JUMP JUMPDEST PUSH1 0x40 MLOAD PUSH2 0xDB SWAP2 SWAP1 PUSH2 0x67F JUMP JUMPDEST PUSH1 0x40 MLOAD DUP1 SWAP2 SUB SWAP1 RETURN JUMPDEST CALLVALUE DUP1 ISZERO PUSH2 0xEF JUMPI PUSH0 PUSH0 REVERT JUMPDEST POP PUSH2 0xF8 PUSH2 0x2CB JUMP JUMPDEST PUSH1 0x40 MLOAD PUSH2 0x105 SWAP2 SWAP1 PUSH2 0x6B4 JUMP JUMPDEST PUSH1 0x40 MLOAD DUP1 SWAP2 SUB SWAP1 RETURN JUMPDEST CALLVALUE DUP1 ISZERO PUSH2 0x119 JUMPI PUSH0 PUSH0 REVERT JUMPDEST POP PUSH2 0x122 PUSH2 0x2DB JUMP JUMPDEST PUSH1 0x40 MLOAD PUSH2 0x12F SWAP2 SWAP1 PUSH2 0x6B4 JUMP JUMPDEST PUSH1 0x40 MLOAD DUP1 SWAP2 SUB SWAP1 RETURN JUMPDEST CALLVALUE DUP1 ISZERO PUSH2 0x143 JUMPI PUSH0 PUSH0 REVERT JUMPDEST POP PUSH2 0x15E PUSH1 0x4 DUP1 CALLDATASIZE SUB DUP2 ADD SWAP1 PUSH2 0x159 SWAP2 SWAP1 PUSH2 0x6F7 JUMP JUMPDEST PUSH2 0x2EE JUMP JUMPDEST PUSH1 0x40 MLOAD PUSH2 0x16B SWAP2 SWAP1 PUSH2 0x761 JUMP JUMPDEST PUSH1 0x40 MLOAD DUP1 SWAP2 SUB SWAP1 RETURN JUMPDEST CALLVALUE DUP1 ISZERO PUSH2 0x17F JUMPI PUSH0 PUSH0 REVERT JUMPDEST POP PUSH2 0x188 PUSH2 0x31D JUMP JUMPDEST PUSH1 0x40 MLOAD PUSH2 0x195 SWAP2 SWAP1 PUSH2 0x6B4 JUMP JUMPDEST PUSH1 0x40 MLOAD DUP1 SWAP2 SUB SWAP1 RETURN JUMPDEST PUSH2 0x1B8 PUSH1 0x4 DUP1 CALLDATASIZE SUB DUP2 ADD SWAP1 PUSH2 0x1B3 SWAP2 SWAP1 PUSH2 0x627 JUMP JUMPDEST PUSH2 0x322 JUMP JUMPDEST STOP JUMPDEST CALLVALUE DUP1 ISZERO PUSH2 0x1C5 JUMPI PUSH0 PUSH0 REVERT JUMPDEST POP PUSH2 0x1E0 PUSH1 0x4 DUP1 CALLDATASIZE SUB DUP2 ADD SWAP1 PUSH2 0x1DB SWAP2 SWAP1 PUSH2 0x627 JUMP JUMPDEST PUSH2 0x4F5 JUMP JUMPDEST PUSH1 0x40 MLOAD PUSH2 0x1ED SWAP2 SWAP1 PUSH2 0x761 JUMP JUMPDEST PUSH1 0x40 MLOAD DUP1 SWAP2 SUB SWAP1 RETURN JUMPDEST PUSH1 0x2 SLOAD DUP2 JUMP JUMPDEST PUSH0 PUSH1 0x64 PUSH2 0xFFFF AND DUP4 PUSH1 0xFF AND LT ISZERO DUP1 PUSH2 0x21C JUMPI POP PUSH1 0x64 PUSH2 0xFFFF AND DUP3 PUSH1 0xFF AND LT ISZERO JUMPDEST ISZERO PUSH2 0x253 JUMPI PUSH1 0x40 MLOAD PUSH32 0xB4120F1400000000000000000000000000000000000000000000000000000000 DUP2 MSTORE PUSH1 0x4 ADD PUSH1 0x40 MLOAD DUP1 SWAP2 SUB SWAP1 REVERT JUMPDEST PUSH0 PUSH20 0xFFFFFFFFFFFFFFFFFFFFFFFFFFFFFFFFFFFFFFFF AND PUSH0 PUSH0 PUSH2 0x276 DUP7 DUP7 PUSH2 0x595 JUMP JUMPDEST PUSH2 0xFFFF AND PUSH2 0xFFFF AND DUP2 MSTORE PUSH1 0x20 ADD SWAP1 DUP2 MSTORE PUSH1 0x20 ADD PUSH0 KECCAK256 PUSH0 SWAP1 SLOAD SWAP1 PUSH2 0x100 EXP SWAP1 DIV PUSH20 0xFFFFFFFFFFFFFFFFFFFFFFFFFFFFFFFFFFFFFFFF AND PUSH20 0xFFFFFFFFFFFFFFFFFFFFFFFFFFFFFFFFFFFFFFFF AND EQ ISZERO SWAP1 POP SWAP3 SWAP2 POP POP JUMP JUMPDEST PUSH1 0x64 DUP1 PUSH2 0x2D8 SWAP2 SWAP1 PUSH2 0x7A7 JUMP JUMPDEST DUP2 JUMP JUMPDEST PUSH1 0x1 PUSH0 SWAP1 SLOAD SWAP1 PUSH2 0x100 EXP SWAP1 DIV PUSH2 0xFFFF AND DUP2 JUMP JUMPDEST PUSH0 PUSH1 0x20 MSTORE DUP1 PUSH0 MSTORE PUSH1 0x40 PUSH0 KECCAK256 PUSH0 SWAP2 POP SLOAD SWAP1 PUSH2 0x100 EXP SWAP1 DIV PUSH20 0xFFFFFFFFFFFFFFFFFFFFFFFFFFFFFFFFFFFFFFFF AND DUP2 JUMP JUMPDEST PUSH1 0x64 DUP2 JUMP JUMPDEST PUSH1 0x64 PUSH2 0xFFFF AND DUP3 PUSH1 0xFF AND LT ISZERO DUP1 PUSH2 0x341 JUMPI POP PUSH1 0x64 PUSH2 0xFFFF AND DUP2 PUSH1 0xFF AND LT ISZERO JUMPDEST ISZERO PUSH2 0x378 JUMPI PUSH1 0x40 MLOAD PUSH32 0xB4120F1400000000000000000000000000000000000000000000000000000000 DUP2 MSTORE PUSH1 0x4 ADD PUSH1 0x40 MLOAD DUP1 SWAP2 SUB SWAP1 REVERT JUMPDEST PUSH1 0x2 SLOAD CALLVALUE EQ PUSH2 0x3C2 JUMPI CALLVALUE PUSH1 0x2 SLOAD PUSH1 0x40 MLOAD PUSH32 0x23B18F5F00000000000000000000000000000000000000000000000000000000 DUP2 MSTORE PUSH1 0x4 ADD PUSH2 0x3B9 SWAP3 SWAP2 SWAP1 PUSH2 0x7E3 JUMP JUMPDEST PUSH1 0x40 MLOAD DUP1 SWAP2 SUB SWAP1 REVERT JUMPDEST PUSH0 PUSH2 0x3CD DUP4 DUP4 PUSH2 0x595 JUMP JUMPDEST SWAP1 POP PUSH0 PUSH20 0xFFFFFFFFFFFFFFFFFFFFFFFFFFFFFFFFFFFFFFFF AND PUSH0 PUSH0 DUP4 PUSH2 0xFFFF AND PUSH2 0xFFFF AND DUP2 MSTORE PUSH1 0x20 ADD SWAP1 DUP2 MSTORE PUSH1 0x20 ADD PUSH0 KECCAK256 PUSH0 SWAP1 SLOAD SWAP1 PUSH2 0x100 EXP SWAP1 DIV PUSH20 0xFFFFFFFFFFFFFFFFFFFFFFFFFFFFFFFFFFFFFFFF AND PUSH20 0xFFFFFFFFFFFFFFFFFFFFFFFFFFFFFFFFFFFFFFFF AND EQ PUSH2 0x46B JUMPI PUSH1 0x40 MLOAD PUSH32 0x6EA27C7A00000000000000000000000000000000000000000000000000000000 DUP2 MSTORE PUSH1 0x4 ADD PUSH1 0x40 MLOAD DUP1 SWAP2 SUB SWAP1 REVERT JUMPDEST CALLER PUSH0 PUSH0 DUP4 PUSH2 0xFFFF AND PUSH2 0xFFFF AND DUP2 MSTORE PUSH1 0x20 ADD SWAP1 DUP2 MSTORE PUSH1 0x20 ADD PUSH0 KECCAK256 PUSH0 PUSH2 0x100 EXP DUP2 SLOAD DUP2 PUSH20 0xFFFFFFFFFFFFFFFFFFFFFFFFFFFFFFFFFFFFFFFF MUL NOT AND SWAP1 DUP4 PUSH20 0xFFFFFFFFFFFFFFFFFFFFFFFFFFFFFFFFFFFFFFFF AND MUL OR SWAP1 SSTORE POP PUSH1 0x1 DUP1 PUSH0 DUP3 DUP3 DUP3 SWAP1 SLOAD SWAP1 PUSH2 0x100 EXP SWAP1 DIV PUSH2 0xFFFF AND ADD SWAP3 POP PUSH2 0x100 EXP DUP2 SLOAD DUP2 PUSH2 0xFFFF MUL NOT AND SWAP1 DUP4 PUSH2 0xFFFF AND MUL OR SWAP1 SSTORE POP POP POP POP JUMP JUMPDEST PUSH0 PUSH1 0x64 PUSH2 0xFFFF AND DUP4 PUSH1 0xFF AND LT ISZERO DUP1 PUSH2 0x515 JUMPI POP PUSH1 0x64 PUSH2 0xFFFF AND DUP3 PUSH1 0xFF AND LT ISZERO JUMPDEST ISZERO PUSH2 0x54C JUMPI PUSH1 0x40 MLOAD PUSH32 0xB4120F1400000000000000000000000000000000000000000000000000000000 DUP2 MSTORE PUSH1 0x4 ADD PUSH1 0x40 MLOAD DUP1 SWAP2 SUB SWAP1 REVERT JUMPDEST PUSH0 PUSH0 PUSH2 0x558 DUP6 DUP6 PUSH2 0x595 JUMP JUMPDEST PUSH2 0xFFFF AND PUSH2 0xFFFF AND DUP2 MSTORE PUSH1 0x20 ADD SWAP1 DUP2 MSTORE PUSH1 0x20 ADD PUSH0 KECCAK256 PUSH0 SWAP1 SLOAD SWAP1 PUSH2 0x100 EXP SWAP1 DIV PUSH20 0xFFFFFFFFFFFFFFFFFFFFFFFFFFFFFFFFFFFFFFFF AND SWAP1 POP SWAP3 SWAP2 POP POP JUMP JUMPDEST PUSH0 DUP2 PUSH1 0xFF AND PUSH1 0x64 DUP5 PUSH1 0xFF AND PUSH2 0x5AA SWAP2 SWAP1 PUSH2 0x7A7 JUMP JUMPDEST PUSH2 0x5B4 SWAP2 SWAP1 PUSH2 0x80A JUMP JUMPDEST SWAP1 POP SWAP3 SWAP2 POP POP JUMP JUMPDEST PUSH0 DUP2 SWAP1 POP SWAP2 SWAP1 POP JUMP JUMPDEST PUSH2 0x5CE DUP2 PUSH2 0x5BC JUMP JUMPDEST DUP3 MSTORE POP POP JUMP JUMPDEST PUSH0 PUSH1 0x20 DUP3 ADD SWAP1 POP PUSH2 0x5E7 PUSH0 DUP4 ADD DUP5 PUSH2 0x5C5 JUMP JUMPDEST SWAP3 SWAP2 POP POP JUMP JUMPDEST PUSH0 PUSH0 REVERT JUMPDEST PUSH0 PUSH1 0xFF DUP3 AND SWAP1 POP SWAP2 SWAP1 POP JUMP JUMPDEST PUSH2 0x606 DUP2 PUSH2 0x5F1 JUMP JUMPDEST DUP2 EQ PUSH2 0x610 JUMPI PUSH0 PUSH0 REVERT JUMPDEST POP JUMP JUMPDEST PUSH0 DUP2 CALLDATALOAD SWAP1 POP PUSH2 0x621 DUP2 PUSH2 0x5FD JUMP JUMPDEST SWAP3 SWAP2 POP POP JUMP JUMPDEST PUSH0 PUSH0 PUSH1 0x40 DUP4 DUP6 SUB SLT ISZERO PUSH2 0x63D JUMPI PUSH2 0x63C PUSH2 0x5ED JUMP JUMPDEST JUMPDEST PUSH0 PUSH2 0x64A DUP6 DUP3 DUP7 ADD PUSH2 0x613 JUMP JUMPDEST SWAP3 POP POP PUSH1 0x20 PUSH2 0x65B DUP6 DUP3 DUP7 ADD PUSH2 0x613 JUMP JUMPDEST SWAP2 POP POP SWAP3 POP SWAP3 SWAP1 POP JUMP JUMPDEST PUSH0 DUP2 ISZERO ISZERO SWAP1 POP SWAP2 SWAP1 POP JUMP JUMPDEST PUSH2 0x679 DUP2 PUSH2 0x665 JUMP JUMPDEST DUP3 MSTORE POP POP JUMP JUMPDEST PUSH0 PUSH1 0x20 DUP3 ADD SWAP1 POP PUSH2 0x692 PUSH0 DUP4 ADD DUP5 PUSH2 0x670 JUMP JUMPDEST SWAP3 SWAP2 POP POP JUMP JUMPDEST PUSH0 PUSH2 0xFFFF DUP3 AND SWAP1 POP SWAP2 SWAP1 POP JUMP JUMPDEST PUSH2 0x6AE DUP2 PUSH2 0x698 JUMP JUMPDEST DUP3 MSTORE POP POP JUMP JUMPDEST PUSH0 PUSH1 0x20 DUP3 ADD SWAP1 POP PUSH2 0x6C7 PUSH0 DUP4 ADD DUP5 PUSH2 0x6A5 JUMP JUMPDEST SWAP3 SWAP2 POP POP JUMP JUMPDEST PUSH2 0x6D6 DUP2 PUSH2 0x698 JUMP JUMPDEST DUP2 EQ PUSH2 0x6E0 JUMPI PUSH0 PUSH0 REVERT JUMPDEST POP JUMP JUMPDEST PUSH0 DUP2 CALLDATALOAD SWAP1 POP PUSH2 0x6F1 DUP2 PUSH2 0x6CD JUMP JUMPDEST SWAP3 SWAP2 POP POP JUMP JUMPDEST PUSH0 PUSH1 0x20 DUP3 DUP5 SUB SLT ISZERO PUSH2 0x70C JUMPI PUSH2 0x70B PUSH2 0x5ED JUMP JUMPDEST JUMPDEST PUSH0 PUSH2 0x719 DUP5 DUP3 DUP6 ADD PUSH2 0x6E3 JUMP JUMPDEST SWAP2 POP POP SWAP3 SWAP2 POP POP JUMP JUMPDEST PUSH0 PUSH20 0xFFFFFFFFFFFFFFFFFFFFFFFFFFFFFFFFFFFFFFFF DUP3 AND SWAP1 POP SWAP2 SWAP1 POP JUMP JUMPDEST PUSH0 PUSH2 0x74B DUP3 PUSH2 0x722 JUMP JUMPDEST SWAP1 POP SWAP2 SWAP1 POP JUMP JUMPDEST PUSH2 0x75B DUP2 PUSH2 0x741 JUMP JUMPDEST DUP3 MSTORE POP POP JUMP JUMPDEST PUSH0 PUSH1 0x20 DUP3 ADD SWAP1 POP PUSH2 0x774 PUSH0 DUP4 ADD DUP5 PUSH2 0x752 JUMP JUMPDEST SWAP3 SWAP2 POP POP JUMP JUMPDEST PUSH32 0x4E487B7100000000000000000000000000000000000000000000000000000000 PUSH0 MSTORE PUSH1 0x11 PUSH1 0x4 MSTORE PUSH1 0x24 PUSH0 REVERT JUMPDEST PUSH0 PUSH2 0x7B1 DUP3 PUSH2 0x698 JUMP JUMPDEST SWAP2 POP PUSH2 0x7BC DUP4 PUSH2 0x698 JUMP JUMPDEST SWAP3 POP DUP3 DUP3 MUL PUSH2 0x7CA DUP2 PUSH2 0x698 JUMP JUMPDEST SWAP2 POP DUP1 DUP3 EQ PUSH2 0x7DC JUMPI PUSH2 0x7DB PUSH2 0x77A JUMP JUMPDEST JUMPDEST POP SWAP3 SWAP2 POP POP JUMP JUMPDEST PUSH0 PUSH1 0x40 DUP3 ADD SWAP1 POP PUSH2 0x7F6 PUSH0 DUP4 ADD DUP6 PUSH2 0x5C5 JUMP JUMPDEST PUSH2 0x803 PUSH1 0x20 DUP4 ADD DUP5 PUSH2 0x5C5 JUMP JUMPDEST SWAP4 SWAP3 POP POP POP JUMP JUMPDEST PUSH0 PUSH2 0x814 DUP3 PUSH2 0x698 JUMP JUMPDEST SWAP2 POP PUSH2 0x81F DUP4 PUSH2 0x698 JUMP JUMPDEST SWAP3 POP DUP3 DUP3 ADD SWAP1 POP PUSH2 0xFFFF DUP2 GT ISZERO PUSH2 0x839 JUMPI PUSH2 0x838 PUSH2 0x77A JUMP JUMPDEST JUMPDEST SWAP3 SWAP2 POP POP JUMP INVALID LOG2 PUSH5 0x6970667358 0x22 SLT KECCAK256 CODESIZE 0x29 SELFBALANCE 0xE2 0x28 SWAP4 SELFDESTRUCT 0xC 0xA9 RETURNDATASIZE CODECOPY EXTSTATICCALL RJUMPI 0x6958 0xBB PUSH4 0x883088F7 ADDRESS PUSH12 0x804D80341D5DD604AA64736F PUSH13 0x634300081E0033000000000000 "
		},
		"gasEstimates": {
			"creation": {
				"codeDepositCost": "433000",
				"executionCost": "infinite",
				"totalCost": "infinite"
			},
			"external": {
				"GRID_SIZE()": "353",
				"TOTAL_CELLS()": "infinite",
				"isOccupied(uint8,uint8)": "infinite",
				"occupiedCount()": "2533",
				"occupyAt(uint8,uint8)": "infinite",
				"occupyFeeWei()": "2426",
				"ownerOf(uint8,uint8)": "infinite",
				"ownerOfCell(uint16)": "2832"
			},
			"internal": {
				"_pack(uint8,uint8)": "infinite",
				"_unpack(uint16)": "infinite"
			}
		},
		"methodIdentifiers": {
			"GRID_SIZE()": "7fc4eda8",
			"TOTAL_CELLS()": "4ae73cec",
			"isOccupied(uint8,uint8)": "3234c956",
			"occupiedCount()": "4eef2707",
			"occupyAt(uint8,uint8)": "cf961853",
			"occupyFeeWei()": "028b32c7",
			"ownerOf(uint8,uint8)": "f894892d",
			"ownerOfCell(uint16)": "6445a74d"
		}
	},
	"abi": [
		{
			"inputs": [
				{
					"internalType": "uint256",
					"name": "_occupyFeeWei",
					"type": "uint256"
				}
			],
			"stateMutability": "nonpayable",
			"type": "constructor"
		},
		{
			"inputs": [],
			"name": "AlreadyOccupied",
			"type": "error"
		},
		{
			"inputs": [],
			"name": "OutOfBounds",
			"type": "error"
		},
		{
			"inputs": [
				{
					"internalType": "uint256",
					"name": "sent",
					"type": "uint256"
				},
				{
					"internalType": "uint256",
					"name": "required",
					"type": "uint256"
				}
			],
			"name": "WrongFee",
			"type": "error"
		},
		{
			"inputs": [],
			"name": "GRID_SIZE",
			"outputs": [
				{
					"internalType": "uint16",
					"name": "",
					"type": "uint16"
				}
			],
			"stateMutability": "view",
			"type": "function"
		},
		{
			"inputs": [],
			"name": "TOTAL_CELLS",
			"outputs": [
				{
					"internalType": "uint16",
					"name": "",
					"type": "uint16"
				}
			],
			"stateMutability": "view",
			"type": "function"
		},
		{
			"inputs": [
				{
					"internalType": "uint8",
					"name": "x",
					"type": "uint8"
				},
				{
					"internalType": "uint8",
					"name": "y",
					"type": "uint8"
				}
			],
			"name": "isOccupied",
			"outputs": [
				{
					"internalType": "bool",
					"name": "",
					"type": "bool"
				}
			],
			"stateMutability": "view",
			"type": "function"
		},
		{
			"inputs": [],
			"name": "occupiedCount",
			"outputs": [
				{
					"internalType": "uint16",
					"name": "",
					"type": "uint16"
				}
			],
			"stateMutability": "view",
			"type": "function"
		},
		{
			"inputs": [
				{
					"internalType": "uint8",
					"name": "x",
					"type": "uint8"
				},
				{
					"internalType": "uint8",
					"name": "y",
					"type": "uint8"
				}
			],
			"name": "occupyAt",
			"outputs": [],
			"stateMutability": "payable",
			"type": "function"
		},
		{
			"inputs": [],
			"name": "occupyFeeWei",
			"outputs": [
				{
					"internalType": "uint256",
					"name": "",
					"type": "uint256"
				}
			],
			"stateMutability": "view",
			"type": "function"
		},
		{
			"inputs": [
				{
					"internalType": "uint8",
					"name": "x",
					"type": "uint8"
				},
				{
					"internalType": "uint8",
					"name": "y",
					"type": "uint8"
				}
			],
			"name": "ownerOf",
			"outputs": [
				{
					"internalType": "address",
					"name": "",
					"type": "address"
				}
			],
			"stateMutability": "view",
			"type": "function"
		},
		{
			"inputs": [
				{
					"internalType": "uint16",
					"name": "",
					"type": "uint16"
				}
			],
			"name": "ownerOfCell",
			"outputs": [
				{
					"internalType": "address",
					"name": "",
					"type": "address"
				}
			],
			"stateMutability": "view",
			"type": "function"
		}
	]
}