{
	"data": {
		"bytecode": {
			"linkReferences": {},
			"object": "60a060405234801561000f575f5ffd5b506040516113c63803806113c683398181016040528101906100319190610172565b5f73ffffffffffffffffffffffffffffffffffffffff168273ffffffffffffffffffffffffffffffffffffffff160361009f576040517f08c379a00000000000000000000000000000000000000000000000000000000081526004016100969061020a565b60405180910390fd5b8173ffffffffffffffffffffffffffffffffffffffff1660808173ffffffffffffffffffffffffffffffffffffffff1681525050806003819055505050610228565b5f5ffd5b5f73ffffffffffffffffffffffffffffffffffffffff82169050919050565b5f61010e826100e5565b9050919050565b61011e81610104565b8114610128575f5ffd5b50565b5f8151905061013981610115565b92915050565b5f819050919050565b6101518161013f565b811461015b575f5ffd5b50565b5f8151905061016c81610148565b92915050565b5f5f60408385031215610188576101876100e1565b5b5f6101958582860161012b565b92505060206101a68582860161015e565b9150509250929050565b5f82825260208201905092915050565b7f646566733d3000000000000000000000000000000000000000000000000000005f82015250565b5f6101f46006836101b0565b91506101ff826101c0565b602082019050919050565b5f6020820190508181035f830152610221816101e8565b9050919050565b60805161117f6102475f395f818161069a0152610763015261117f5ff3fe6080604052600436106100c1575f3560e01c80634f4fdf801161007e5780637fc4eda8116100585780637fc4eda81461029e578063d84cf3e7146102c8578063dc6dfab3146102e4578063f894892d14610320576100c1565b80634f4fdf80146101fa5780636445a74d146102385780637197cc7d14610274576100c1565b8063028b32c7146100c55780632a748961146100ef5780633234c9561461012e5780633bc298a91461016a5780634ae73cec146101a65780634eef2707146101d0575b5f5ffd5b3480156100d0575f5ffd5b506100d961035c565b6040516100e69190610c0e565b60405180910390f35b3480156100fa575f5ffd5b5061011560048036038101906101109190610c85565b610362565b6040516101259493929190610ce5565b60405180910390f35b348015610139575f5ffd5b50610154600480360381019061014f9190610d52565b610458565b6040516101619190610d90565b60405180910390f35b348015610175575f5ffd5b50610190600480360381019061018b9190610de0565b610527565b60405161019d9190610e0b565b60405180910390f35b3480156101b1575f5ffd5b506101ba610544565b6040516101c79190610e33565b60405180910390f35b3480156101db575f5ffd5b506101e4610554565b6040516101f19190610e33565b60405180910390f35b348015610205575f5ffd5b50610220600480360381019061021b9190610d52565b610567565b60405161022f93929190610e5b565b60405180910390f35b348015610243575f5ffd5b5061025e60048036038101906102599190610de0565b610669565b60405161026b9190610e90565b60405180910390f35b34801561027f575f5ffd5b50610288610698565b6040516102959190610f04565b60405180910390f35b3480156102a9575f5ffd5b506102b26106bc565b6040516102bf9190610e33565b60405180910390f35b6102e260048036038101906102dd9190610f1d565b6106c1565b005b3480156102ef575f5ffd5b5061030a60048036038101906103059190610c85565b610aed565b6040516103179190610d90565b60405180910390f35b34801561032b575f5ffd5b5061034660048036038101906103419190610d52565b610b0a565b6040516103539190610e90565b60405180910390f35b60035481565b5f5f5f5f60045f8673ffffffffffffffffffffffffffffffffffffffff1673ffffffffffffffffffffffffffffffffffffffff1681526020019081526020015f205f9054906101000a900460ff169350836103c8575f5f5f5f9350935093509350610451565b5f60055f8773ffffffffffffffffffffffffffffffffffffffff1673ffffffffffffffffffffffffffffffffffffffff1681526020019081526020015f205f9054906101000a900461ffff16905061041f81610baa565b809450819550505060015f8261ffff1661ffff1681526020019081526020015f205f9054906101000a900460ff169150505b9193509193565b5f606461ffff168360ff161015806104785750606461ffff168260ff1610155b156104af576040517fb4120f1400000000000000000000000000000000000000000000000000000000815260040160405180910390fd5b5f73ffffffffffffffffffffffffffffffffffffffff165f5f6104d28686610bcf565b61ffff1661ffff1681526020019081526020015f205f9054906101000a900473ffffffffffffffffffffffffffffffffffffffff1673ffffffffffffffffffffffffffffffffffffffff161415905092915050565b6001602052805f5260405f205f915054906101000a900460ff1681565b6064806105519190610f9a565b81565b60025f9054906101000a900461ffff1681565b5f5f5f606461ffff168560ff161015806105895750606461ffff168460ff1610155b156105c0576040517fb4120f1400000000000000000000000000000000000000000000000000000000815260040160405180910390fd5b5f6105cb8686610bcf565b90505f5f8261ffff1661ffff1681526020019081526020015f205f9054906101000a900473ffffffffffffffffffffffffffffffffffffffff1692505f73ffffffffffffffffffffffffffffffffffffffff168373ffffffffffffffffffffffffffffffffffffffff161415935060015f8261ffff1661ffff1681526020019081526020015f205f9054906101000a900460ff169150509250925092565b5f602052805f5260405f205f915054906101000a900473ffffffffffffffffffffffffffffffffffffffff1681565b7f000000000000000000000000000000000000000000000000000000000000000081565b606481565b606461ffff168360ff161015806106e05750606461ffff168260ff1610155b15610717576040517fb4120f1400000000000000000000000000000000000000000000000000000000815260040160405180910390fd5b600354341461076157346003546040517f23b18f5f000000000000000000000000000000000000000000000000000000008152600401610758929190610fd6565b60405180910390fd5b7f000000000000000000000000000000000000000000000000000000000000000073ffffffffffffffffffffffffffffffffffffffff166399078cb5826040518263ffffffff1660e01b81526004016107ba9190610e0b565b602060405180830381865afa1580156107d5573d5f5f3e3d5ffd5b505050506040513d601f19601f820116820180604052508101906107f99190611027565b61083a57806040517f5d42cbc80000000000000000000000000000000000000000000000000000000081526004016108319190610e0b565b60405180910390fd5b5f6108458484610bcf565b90505f73ffffffffffffffffffffffffffffffffffffffff165f5f8361ffff1661ffff1681526020019081526020015f205f9054906101000a900473ffffffffffffffffffffffffffffffffffffffff1673ffffffffffffffffffffffffffffffffffffffff16146108e3576040517f6ea27c7a00000000000000000000000000000000000000000000000000000000815260040160405180910390fd5b335f5f8361ffff1661ffff1681526020019081526020015f205f6101000a81548173ffffffffffffffffffffffffffffffffffffffff021916908373ffffffffffffffffffffffffffffffffffffffff1602179055508160015f8361ffff1661ffff1681526020019081526020015f205f6101000a81548160ff021916908360ff160217905550600160025f8282829054906101000a900461ffff160192506101000a81548161ffff021916908361ffff16021790555060045f3373ffffffffffffffffffffffffffffffffffffffff1673ffffffffffffffffffffffffffffffffffffffff1681526020019081526020015f205f9054906101000a900460ff16610a9557600160045f3373ffffffffffffffffffffffffffffffffffffffff1673ffffffffffffffffffffffffffffffffffffffff1681526020019081526020015f205f6101000a81548160ff0219169083151502179055508060055f3373ffffffffffffffffffffffffffffffffffffffff1673ffffffffffffffffffffffffffffffffffffffff1681526020019081526020015f205f6101000a81548161ffff021916908361ffff1602179055505b3373ffffffffffffffffffffffffffffffffffffffff167ff74c0d8dc37d4ee59fdf22f38eccb3460e1801969d17b692c19e94f810175f47858585604051610adf93929190611052565b60405180910390a250505050565b6004602052805f5260405f205f915054906101000a900460ff1681565b5f606461ffff168360ff16101580610b2a5750606461ffff168260ff1610155b15610b61576040517fb4120f1400000000000000000000000000000000000000000000000000000000815260040160405180910390fd5b5f5f610b6d8585610bcf565b61ffff1661ffff1681526020019081526020015f205f9054906101000a900473ffffffffffffffffffffffffffffffffffffffff16905092915050565b5f5f606483610bb991906110b4565b9150606483610bc891906110e4565b9050915091565b5f8160ff1660648460ff16610be49190610f9a565b610bee9190611114565b905092915050565b5f819050919050565b610c0881610bf6565b82525050565b5f602082019050610c215f830184610bff565b92915050565b5f5ffd5b5f73ffffffffffffffffffffffffffffffffffffffff82169050919050565b5f610c5482610c2b565b9050919050565b610c6481610c4a565b8114610c6e575f5ffd5b50565b5f81359050610c7f81610c5b565b92915050565b5f60208284031215610c9a57610c99610c27565b5b5f610ca784828501610c71565b91505092915050565b5f8115159050919050565b610cc481610cb0565b82525050565b5f60ff82169050919050565b610cdf81610cca565b82525050565b5f608082019050610cf85f830187610cbb565b610d056020830186610cd6565b610d126040830185610cd6565b610d1f6060830184610cd6565b95945050505050565b610d3181610cca565b8114610d3b575f5ffd5b50565b5f81359050610d4c81610d28565b92915050565b5f5f60408385031215610d6857610d67610c27565b5b5f610d7585828601610d3e565b9250506020610d8685828601610d3e565b9150509250929050565b5f602082019050610da35f830184610cbb565b92915050565b5f61ffff82169050919050565b610dbf81610da9565b8114610dc9575f5ffd5b50565b5f81359050610dda81610db6565b92915050565b5f60208284031215610df557610df4610c27565b5b5f610e0284828501610dcc565b91505092915050565b5f602082019050610e1e5f830184610cd6565b92915050565b610e2d81610da9565b82525050565b5f602082019050610e465f830184610e24565b92915050565b610e5581610c4a565b82525050565b5f606082019050610e6e5f830186610cbb565b610e7b6020830185610e4c565b610e886040830184610cd6565b949350505050565b5f602082019050610ea35f830184610e4c565b92915050565b5f819050919050565b5f610ecc610ec7610ec284610c2b565b610ea9565b610c2b565b9050919050565b5f610edd82610eb2565b9050919050565b5f610eee82610ed3565b9050919050565b610efe81610ee4565b82525050565b5f602082019050610f175f830184610ef5565b92915050565b5f5f5f60608486031215610f3457610f33610c27565b5b5f610f4186828701610d3e565b9350506020610f5286828701610d3e565b9250506040610f6386828701610d3e565b9150509250925092565b7f4e487b71000000000000000000000000000000000000000000000000000000005f52601160045260245ffd5b5f610fa482610da9565b9150610faf83610da9565b9250828202610fbd81610da9565b9150808214610fcf57610fce610f6d565b5b5092915050565b5f604082019050610fe95f830185610bff565b610ff66020830184610bff565b9392505050565b61100681610cb0565b8114611010575f5ffd5b50565b5f8151905061102181610ffd565b92915050565b5f6020828403121561103c5761103b610c27565b5b5f61104984828501611013565b91505092915050565b5f6060820190506110655f830186610cd6565b6110726020830185610cd6565b61107f6040830184610cd6565b949350505050565b7f4e487b71000000000000000000000000000000000000000000000000000000005f52601260045260245ffd5b5f6110be82610da9565b91506110c983610da9565b9250826110d9576110d8611087565b5b828204905092915050565b5f6110ee82610da9565b91506110f983610da9565b92508261110957611108611087565b5b828206905092915050565b5f61111e82610da9565b915061112983610da9565b9250828201905061ffff81111561114357611142610f6d565b5b9291505056fea264697066735822122067e6d21b1c0ac51def295c9405a6a03cd61cf3774a84f88fae4700983e97c57664736f6c634300081e0033",
			"opcodes": "PUSH1 0xA0 PUSH1 0x40 MSTORE CALLVALUE DUP1 ISZERO PUSH2 0xF JUMPI PUSH0 PUSH0 REVERT JUMPDEST POP PUSH1 0x40 MLOAD PUSH2 0x13C6 CODESIZE SUB DUP1 PUSH2 0x13C6 DUP4 CODECOPY DUP2 DUP2 ADD PUSH1 0x40 MSTORE DUP2 ADD SWAP1 PUSH2 0x31 SWAP2 SWAP1 PUSH2 0x172 JUMP JUMPDEST PUSH0 PUSH20 0xFFFFFFFFFFFFFFFFFFFFFFFFFFFFFFFFFFFFFFFF AND DUP3 PUSH20 0xFFFFFFFFFFFFFFFFFFFFFFFFFFFFFFFFFFFFFFFF AND SUB PUSH2 0x9F JUMPI PUSH1 0x40 MLOAD PUSH32 0x8C379A000000000000000000000000000000000000000000000000000000000 DUP2 MSTORE PUSH1 0x4 ADD PUSH2 0x96 SWAP1 PUSH2 0x20A JUMP JUMPDEST PUSH1 0x40 MLOAD DUP1 SWAP2 SUB SWAP1 REVERT JUMPDEST DUP2 PUSH20 0xFFFFFFFFFFFFFFFFFFFFFFFFFFFFFFFFFFFFFFFF AND PUSH1 0x80 DUP2 PUSH20 0xFFFFFFFFFFFFFFFFFFFFFFFFFFFFFFFFFFFFFFFF AND DUP2 MSTORE POP POP DUP1 PUSH1 0x3 DUP2 SWAP1 SSTORE POP POP POP PUSH2 0x228 JUMP JUMPDEST PUSH0 PUSH0 REVERT JUMPDEST PUSH0 PUSH20 0xFFFFFFFFFFFFFFFFFFFFFFFFFFFFFFFFFFFFFFFF DUP3 AND SWAP1 POP SWAP2 SWAP1 POP JUMP JUMPDEST PUSH0 PUSH2 0x10E DUP3 PUSH2 0xE5 JUMP JUMPDEST SWAP1 POP SWAP2 SWAP1 POP JUMP JUMPDEST PUSH2 0x11E DUP2 PUSH2 0x104 JUMP JUMPDEST DUP2 EQ PUSH2 0x128 JUMPI PUSH0 PUSH0 REVERT JUMPDEST POP JUMP JUMPDEST PUSH0 DUP2 MLOAD SWAP1 POP PUSH2 0x139 DUP2 PUSH2 0x115 JUMP JUMPDEST SWAP3 SWAP2 POP POP JUMP JUMPDEST PUSH0 DUP2 SWAP1 POP SWAP2 SWAP1 POP JUMP JUMPDEST PUSH2 0x151 DUP2 PUSH2 0x13F JUMP JUMPDEST DUP2 EQ PUSH2 0x15B JUMPI PUSH0 PUSH0 REVERT JUMPDEST POP JUMP JUMPDEST PUSH0 DUP2 MLOAD SWAP1 POP PUSH2 0x16C DUP2 PUSH2 0x148 JUMP JUMPDEST SWAP3 SWAP2 POP POP JUMP JUMPDEST PUSH0 PUSH0 PUSH1 0x40 DUP4 DUP6 SUB SLT ISZERO PUSH2 0x188 JUMPI PUSH2 0x187 PUSH2 0xE1 JUMP JUMPDEST JUMPDEST PUSH0 PUSH2 0x195 DUP6 DUP3 DUP7 ADD PUSH2 0x12B JUMP JUMPDEST SWAP3 POP POP PUSH1 0x20 PUSH2 0x1A6 DUP6 DUP3 DUP7 ADD PUSH2 0x15E JUMP JUMPDEST SWAP2 POP POP SWAP3 POP SWAP3 SWAP1 POP JUMP JUMPDEST PUSH0 DUP3 DUP3 MSTORE PUSH1 0x20 DUP3 ADD SWAP1 POP SWAP3 SWAP2 POP POP JUMP JUMPDEST PUSH32 0x646566733D300000000000000000000000000000000000000000000000000000 PUSH0 DUP3 ADD MSTORE POP JUMP JUMPDEST PUSH0 PUSH2 0x1F4 PUSH1 0x6 DUP4 PUSH2 0x1B0 JUMP JUMPDEST SWAP2 POP PUSH2 0x1FF DUP3 PUSH2 0x1C0 JUMP JUMPDEST PUSH1 0x20 DUP3 ADD SWAP1 POP SWAP2 SWAP1 POP JUMP JUMPDEST PUSH0 PUSH1 0x20 DUP3 ADD SWAP1 POP DUP2 DUP2 SUB PUSH0 DUP4 ADD MSTORE PUSH2 0x221 DUP2 PUSH2 0x1E8 JUMP JUMPDEST SWAP1 POP SWAP2 SWAP1 POP JUMP JUMPDEST PUSH1 0x80 MLOAD PUSH2 0x117F PUSH2 0x247 PUSH0 CODECOPY PUSH0 DUP2 DUP2 PUSH2 0x69A ADD MSTORE PUSH2 0x763 ADD MSTORE PUSH2 0x117F PUSH0 RETURN INVALID PUSH1 0x80 PUSH1 0x40 MSTORE PUSH1 0x4 CALLDATASIZE LT PUSH2 0xC1 JUMPI PUSH0 CALLDATALOAD PUSH1 0xE0 SHR DUP1 PUSH4 0x4F4FDF80 GT PUSH2 0x7E JUMPI DUP1 PUSH4 0x7FC4EDA8 GT PUSH2 0x58 JUMPI DUP1 PUSH4 0x7FC4EDA8 EQ PUSH2 0x29E JUMPI DUP1 PUSH4 0xD84CF3E7 EQ PUSH2 0x2C8 JUMPI DUP1 PUSH4 0xDC6DFAB3 EQ PUSH2 0x2E4 JUMPI DUP1 PUSH4 0xF894892D EQ PUSH2 0x320 JUMPI PUSH2 0xC1 JUMP JUMPDEST DUP1 PUSH4 0x4F4FDF80 EQ PUSH2 0x1FA JUMPI DUP1 PUSH4 0x6445A74D EQ PUSH2 0x238 JUMPI DUP1 PUSH4 0x7197CC7D EQ PUSH2 0x274 JUMPI PUSH2 0xC1 JUMP JUMPDEST DUP1 PUSH4 0x28B32C7 EQ PUSH2 0xC5 JUMPI DUP1 PUSH4 0x2A748961 EQ PUSH2 0xEF JUMPI DUP1 PUSH4 0x3234C956 EQ PUSH2 0x12E JUMPI DUP1 PUSH4 0x3BC298A9 EQ PUSH2 0x16A JUMPI DUP1 PUSH4 0x4AE73CEC EQ PUSH2 0x1A6 JUMPI DUP1 PUSH4 0x4EEF2707 EQ PUSH2 0x1D0 JUMPI JUMPDEST PUSH0 PUSH0 REVERT JUMPDEST CALLVALUE DUP1 ISZERO PUSH2 0xD0 JUMPI PUSH0 PUSH0 REVERT JUMPDEST POP PUSH2 0xD9 PUSH2 0x35C JUMP JUMPDEST PUSH1 0x40 MLOAD PUSH2 0xE6 SWAP2 SWAP1 PUSH2 0xC0E JUMP JUMPDEST PUSH1 0x40 MLOAD DUP1 SWAP2 SUB SWAP1 RETURN JUMPDEST CALLVALUE DUP1 ISZERO PUSH2 0xFA JUMPI PUSH0 PUSH0 REVERT JUMPDEST POP PUSH2 0x115 PUSH1 0x4 DUP1 CALLDATASIZE SUB DUP2 ADD SWAP1 PUSH2 0x110 SWAP2 SWAP1 PUSH2 0xC85 JUMP JUMPDEST PUSH2 0x362 JUMP JUMPDEST PUSH1 0x40 MLOAD PUSH2 0x125 SWAP5 SWAP4 SWAP3 SWAP2 SWAP1 PUSH2 0xCE5 JUMP JUMPDEST PUSH1 0x40 MLOAD DUP1 SWAP2 SUB SWAP1 RETURN JUMPDEST CALLVALUE DUP1 ISZERO PUSH2 0x139 JUMPI PUSH0 PUSH0 REVERT JUMPDEST POP PUSH2 0x154 PUSH1 0x4 DUP1 CALLDATASIZE SUB DUP2 ADD SWAP1 PUSH2 0x14F SWAP2 SWAP1 PUSH2 0xD52 JUMP JUMPDEST PUSH2 0x458 JUMP JUMPDEST PUSH1 0x40 MLOAD PUSH2 0x161 SWAP2 SWAP1 PUSH2 0xD90 JUMP JUMPDEST PUSH1 0x40 MLOAD DUP1 SWAP2 SUB SWAP1 RETURN JUMPDEST CALLVALUE DUP1 ISZERO PUSH2 0x175 JUMPI PUSH0 PUSH0 REVERT JUMPDEST POP PUSH2 0x190 PUSH1 0x4 DUP1 CALLDATASIZE SUB DUP2 ADD SWAP1 PUSH2 0x18B SWAP2 SWAP1 PUSH2 0xDE0 JUMP JUMPDEST PUSH2 0x527 JUMP JUMPDEST PUSH1 0x40 MLOAD PUSH2 0x19D SWAP2 SWAP1 PUSH2 0xE0B JUMP JUMPDEST PUSH1 0x40 MLOAD DUP1 SWAP2 SUB SWAP1 RETURN JUMPDEST CALLVALUE DUP1 ISZERO PUSH2 0x1B1 JUMPI PUSH0 PUSH0 REVERT JUMPDEST POP PUSH2 0x1BA PUSH2 0x544 JUMP JUMPDEST PUSH1 0x40 MLOAD PUSH2 0x1C7 SWAP2 SWAP1 PUSH2 0xE33 JUMP JUMPDEST PUSH1 0x40 MLOAD DUP1 SWAP2 SUB SWAP1 RETURN JUMPDEST CALLVALUE DUP1 ISZERO PUSH2 0x1DB JUMPI PUSH0 PUSH0 REVERT JUMPDEST POP PUSH2 0x1E4 PUSH2 0x554 JUMP JUMPDEST PUSH1 0x40 MLOAD PUSH2 0x1F1 SWAP2 SWAP1 PUSH2 0xE33 JUMP JUMPDEST PUSH1 0x40 MLOAD DUP1 SWAP2 SUB SWAP1 RETURN JUMPDEST CALLVALUE DUP1 ISZERO PUSH2 0x205 JUMPI PUSH0 PUSH0 REVERT JUMPDEST POP PUSH2 0x220 PUSH1 0x4 DUP1 CALLDATASIZE SUB DUP2 ADD SWAP1 PUSH2 0x21B SWAP2 SWAP1 PUSH2 0xD52 JUMP JUMPDEST PUSH2 0x567 JUMP JUMPDEST PUSH1 0x40 MLOAD PUSH2 0x22F SWAP4 SWAP3 SWAP2 SWAP1 PUSH2 0xE5B JUMP JUMPDEST PUSH1 0x40 MLOAD DUP1 SWAP2 SUB SWAP1 RETURN JUMPDEST CALLVALUE DUP1 ISZERO PUSH2 0x243 JUMPI PUSH0 PUSH0 REVERT JUMPDEST POP PUSH2 0x25E PUSH1 0x4 DUP1 CALLDATASIZE SUB DUP2 ADD SWAP1 PUSH2 0x259 SWAP2 SWAP1 PUSH2 0xDE0 JUMP JUMPDEST PUSH2 0x669 JUMP JUMPDEST PUSH1 0x40 MLOAD PUSH2 0x26B SWAP2 SWAP1 PUSH2 0xE90 JUMP JUMPDEST PUSH1 0x40 MLOAD DUP1 SWAP2 SUB SWAP1 RETURN JUMPDEST CALLVALUE DUP1 ISZERO PUSH2 0x27F JUMPI PUSH0 PUSH0 REVERT JUMPDEST POP PUSH2 0x288 PUSH2 0x698 JUMP JUMPDEST PUSH1 0x40 MLOAD PUSH2 0x295 SWAP2 SWAP1 PUSH2 0xF04 JUMP JUMPDEST PUSH1 0x40 MLOAD DUP1 SWAP2 SUB SWAP1 RETURN JUMPDEST CALLVALUE DUP1 ISZERO PUSH2 0x2A9 JUMPI PUSH0 PUSH0 REVERT JUMPDEST POP PUSH2 0x2B2 PUSH2 0x6BC JUMP JUMPDEST PUSH1 0x40 MLOAD PUSH2 0x2BF SWAP2 SWAP1 PUSH2 0xE33 JUMP JUMPDEST PUSH1 0x40 MLOAD DUP1 SWAP2 SUB SWAP1 RETURN JUMPDEST PUSH2 0x2E2 PUSH1 0x4 DUP1 CALLDATASIZE SUB DUP2 ADD SWAP1 PUSH2 0x2DD SWAP2 SWAP1 PUSH2 0xF1D JUMP JUMPDEST PUSH2 0x6C1 JUMP JUMPDEST STOP JUMPDEST CALLVALUE DUP1 ISZERO PUSH2 0x2EF JUMPI PUSH0 PUSH0 REVERT JUMPDEST POP PUSH2 0x30A PUSH1 0x4 DUP1 CALLDATASIZE SUB DUP2 ADD SWAP1 PUSH2 0x305 SWAP2 SWAP1 PUSH2 0xC85 JUMP JUMPDEST PUSH2 0xAED JUMP JUMPDEST PUSH1 0x40 MLOAD PUSH2 0x317 SWAP2 SWAP1 PUSH2 0xD90 JUMP JUMPDEST PUSH1 0x40 MLOAD DUP1 SWAP2 SUB SWAP1 RETURN JUMPDEST CALLVALUE DUP1 ISZERO PUSH2 0x32B JUMPI PUSH0 PUSH0 REVERT JUMPDEST POP PUSH2 0x346 PUSH1 0x4 DUP1 CALLDATASIZE SUB DUP2 ADD SWAP1 PUSH2 0x341 SWAP2 SWAP1 PUSH2 0xD52 JUMP JUMPDEST PUSH2 0xB0A JUMP JUMPDEST PUSH1 0x40 MLOAD PUSH2 0x353 SWAP2 SWAP1 PUSH2 0xE90 JUMP JUMPDEST PUSH1 0x40 MLOAD DUP1 SWAP2 SUB SWAP1 RETURN JUMPDEST PUSH1 0x3 SLOAD DUP2 JUMP JUMPDEST PUSH0 PUSH0 PUSH0 PUSH0 PUSH1 0x4 PUSH0 DUP7 PUSH20 0xFFFFFFFFFFFFFFFFFFFFFFFFFFFFFFFFFFFFFFFF AND PUSH20 0xFFFFFFFFFFFFFFFFFFFFFFFFFFFFFFFFFFFFFFFF AND DUP2 MSTORE PUSH1 0x20 ADD SWAP1 DUP2 MSTORE PUSH1 0x20 ADD PUSH0 KECCAK256 PUSH0 SWAP1 SLOAD SWAP1 PUSH2 0x100 EXP SWAP1 DIV PUSH1 0xFF AND SWAP4 POP DUP4 PUSH2 0x3C8 JUMPI PUSH0 PUSH0 PUSH0 PUSH0 SWAP4 POP SWAP4 POP SWAP4 POP SWAP4 POP PUSH2 0x451 JUMP JUMPDEST PUSH0 PUSH1 0x5 PUSH0 DUP8 PUSH20 0xFFFFFFFFFFFFFFFFFFFFFFFFFFFFFFFFFFFFFFFF AND PUSH20 0xFFFFFFFFFFFFFFFFFFFFFFFFFFFFFFFFFFFFFFFF AND DUP2 MSTORE PUSH1 0x20 ADD SWAP1 DUP2 MSTORE PUSH1 0x20 ADD PUSH0 KECCAK256 PUSH0 SWAP1 SLOAD SWAP1 PUSH2 0x100 EXP SWAP1 DIV PUSH2 0xFFFF AND SWAP1 POP PUSH2 0x41F DUP2 PUSH2 0xBAA JUMP JUMPDEST DUP1 SWAP5 POP DUP2 SWAP6 POP POP POP PUSH1 0x1 PUSH0 DUP3 PUSH2 0xFFFF AND PUSH2 0xFFFF AND DUP2 MSTORE PUSH1 0x20 ADD SWAP1 DUP2 MSTORE PUSH1 0x20 ADD PUSH0 KECCAK256 PUSH0 SWAP1 SLOAD SWAP1 PUSH2 0x100 EXP SWAP1 DIV PUSH1 0xFF AND SWAP2 POP POP JUMPDEST SWAP2 SWAP4 POP SWAP2 SWAP4 JUMP JUMPDEST PUSH0 PUSH1 0x64 PUSH2 0xFFFF AND DUP4 PUSH1 0xFF AND LT ISZERO DUP1 PUSH2 0x478 JUMPI POP PUSH1 0x64 PUSH2 0xFFFF AND DUP3 PUSH1 0xFF AND LT ISZERO JUMPDEST ISZERO PUSH2 0x4AF JUMPI PUSH1 0x40 MLOAD PUSH32 0xB4120F1400000000000000000000000000000000000000000000000000000000 DUP2 MSTORE PUSH1 0x4 ADD PUSH1 0x40 MLOAD DUP1 SWAP2 SUB SWAP1 REVERT JUMPDEST PUSH0 PUSH20 0xFFFFFFFFFFFFFFFFFFFFFFFFFFFFFFFFFFFFFFFF AND PUSH0 PUSH0 PUSH2 0x4D2 DUP7 DUP7 PUSH2 0xBCF JUMP JUMPDEST PUSH2 0xFFFF AND PUSH2 0xFFFF AND DUP2 MSTORE PUSH1 0x20 ADD SWAP1 DUP2 MSTORE PUSH1 0x20 ADD PUSH0 KECCAK256 PUSH0 SWAP1 SLOAD SWAP1 PUSH2 0x100 EXP SWAP1 DIV PUSH20 0xFFFFFFFFFFFFFFFFFFFFFFFFFFFFFFFFFFFFFFFF AND PUSH20 0xFFFFFFFFFFFFFFFFFFFFFFFFFFFFFFFFFFFFFFFF AND EQ ISZERO SWAP1 POP SWAP3 SWAP2 POP POP JUMP JUMPDEST PUSH1 0x1 PUSH1 0x20 MSTORE DUP1 PUSH0 MSTORE PUSH1 0x40 PUSH0 KECCAK256 PUSH0 SWAP2 POP SLOAD SWAP1 PUSH2 0x100 EXP SWAP1 DIV PUSH1 0xFF AND DUP2 JUMP JUMPDEST PUSH1 0x64 DUP1 PUSH2 0x551 SWAP2 SWAP1 PUSH2 0xF9A JUMP JUMPDEST DUP2 JUMP JUMPDEST PUSH1 0x2 PUSH0 SWAP1 SLOAD SWAP1 PUSH2 0x100 EXP SWAP1 DIV PUSH2 0xFFFF AND DUP2 JUMP JUMPDEST PUSH0 PUSH0 PUSH0 PUSH1 0x64 PUSH2 0xFFFF AND DUP6 PUSH1 0xFF AND LT ISZERO DUP1 PUSH2 0x589 JUMPI POP PUSH1 0x64 PUSH2 0xFFFF AND DUP5 PUSH1 0xFF AND LT ISZERO JUMPDEST ISZERO PUSH2 0x5C0 JUMPI PUSH1 0x40 MLOAD PUSH32 0xB4120F1400000000000000000000000000000000000000000000000000000000 DUP2 MSTORE PUSH1 0x4 ADD PUSH1 0x40 MLOAD DUP1 SWAP2 SUB SWAP1 REVERT JUMPDEST PUSH0 PUSH2 0x5CB DUP7 DUP7 PUSH2 0xBCF JUMP JUMPDEST SWAP1 POP PUSH0 PUSH0 DUP3 PUSH2 0xFFFF AND PUSH2 0xFFFF AND DUP2 MSTORE PUSH1 0x20 ADD SWAP1 DUP2 MSTORE PUSH1 0x20 ADD PUSH0 KECCAK256 PUSH0 SWAP1 SLOAD SWAP1 PUSH2 0x100 EXP SWAP1 DIV PUSH20 0xFFFFFFFFFFFFFFFFFFFFFFFFFFFFFFFFFFFFFFFF AND SWAP3 POP PUSH0 PUSH20 0xFFFFFFFFFFFFFFFFFFFFFFFFFFFFFFFFFFFFFFFF AND DUP4 PUSH20 0xFFFFFFFFFFFFFFFFFFFFFFFFFFFFFFFFFFFFFFFF AND EQ ISZERO SWAP4 POP PUSH1 0x1 PUSH0 DUP3 PUSH2 0xFFFF AND PUSH2 0xFFFF AND DUP2 MSTORE PUSH1 0x20 ADD SWAP1 DUP2 MSTORE PUSH1 0x20 ADD PUSH0 KECCAK256 PUSH0 SWAP1 SLOAD SWAP1 PUSH2 0x100 EXP SWAP1 DIV PUSH1 0xFF AND SWAP2 POP POP SWAP3 POP SWAP3 POP SWAP3 JUMP JUMPDEST PUSH0 PUSH1 0x20 MSTORE DUP1 PUSH0 MSTORE PUSH1 0x40 PUSH0 KECCAK256 PUSH0 SWAP2 POP SLOAD SWAP1 PUSH2 0x100 EXP SWAP1 DIV PUSH20 0xFFFFFFFFFFFFFFFFFFFFFFFFFFFFFFFFFFFFFFFF AND DUP2 JUMP JUMPDEST PUSH32 0x0 DUP2 JUMP JUMPDEST PUSH1 0x64 DUP2 JUMP JUMPDEST PUSH1 0x64 PUSH2 0xFFFF AND DUP4 PUSH1 0xFF AND LT ISZERO DUP1 PUSH2 0x6E0 JUMPI POP PUSH1 0x64 PUSH2 0xFFFF AND DUP3 PUSH1 0xFF AND LT ISZERO JUMPDEST ISZERO PUSH2 0x717 JUMPI PUSH1 0x40 MLOAD PUSH32 0xB4120F1400000000000000000000000000000000000000000000000000000000 DUP2 MSTORE PUSH1 0x4 ADD PUSH1 0x40 MLOAD DUP1 SWAP2 SUB SWAP1 REVERT JUMPDEST PUSH1 0x3 SLOAD CALLVALUE EQ PUSH2 0x761 JUMPI CALLVALUE PUSH1 0x3 SLOAD PUSH1 0x40 MLOAD PUSH32 0x23B18F5F00000000000000000000000000000000000000000000000000000000 DUP2 MSTORE PUSH1 0x4 ADD PUSH2 0x758 SWAP3 SWAP2 SWAP1 PUSH2 0xFD6 JUMP JUMPDEST PUSH1 0x40 MLOAD DUP1 SWAP2 SUB SWAP1 REVERT JUMPDEST PUSH32 0x0 PUSH20 0xFFFFFFFFFFFFFFFFFFFFFFFFFFFFFFFFFFFFFFFF AND PUSH4 0x99078CB5 DUP3 PUSH1 0x40 MLOAD DUP3 PUSH4 0xFFFFFFFF AND PUSH1 0xE0 SHL DUP2 MSTORE PUSH1 0x4 ADD PUSH2 0x7BA SWAP2 SWAP1 PUSH2 0xE0B JUMP JUMPDEST PUSH1 0x20 PUSH1 0x40 MLOAD DUP1 DUP4 SUB DUP2 DUP7 GAS STATICCALL ISZERO DUP1 ISZERO PUSH2 0x7D5 JUMPI RETURNDATASIZE PUSH0 PUSH0 RETURNDATACOPY RETURNDATASIZE PUSH0 REVERT JUMPDEST POP POP POP POP PUSH1 0x40 MLOAD RETURNDATASIZE PUSH1 0x1F NOT PUSH1 0x1F DUP3 ADD AND DUP3 ADD DUP1 PUSH1 0x40 MSTORE POP DUP2 ADD SWAP1 PUSH2 0x7F9 SWAP2 SWAP1 PUSH2 0x1027 JUMP JUMPDEST PUSH2 0x83A JUMPI DUP1 PUSH1 0x40 MLOAD PUSH32 0x5D42CBC800000000000000000000000000000000000000000000000000000000 DUP2 MSTORE PUSH1 0x4 ADD PUSH2 0x831 SWAP2 SWAP1 PUSH2 0xE0B JUMP JUMPDEST PUSH1 0x40 MLOAD DUP1 SWAP2 SUB SWAP1 REVERT JUMPDEST PUSH0 PUSH2 0x845 DUP5 DUP5 PUSH2 0xBCF JUMP JUMPDEST SWAP1 POP PUSH0 PUSH20 0xFFFFFFFFFFFFFFFFFFFFFFFFFFFFFFFFFFFFFFFF AND PUSH0 PUSH0 DUP4 PUSH2 0xFFFF AND PUSH2 0xFFFF AND DUP2 MSTORE PUSH1 0x20 ADD SWAP1 DUP2 MSTORE PUSH1 0x20 ADD PUSH0 KECCAK256 PUSH0 SWAP1 SLOAD SWAP1 PUSH2 0x100 EXP SWAP1 DIV PUSH20 0xFFFFFFFFFFFFFFFFFFFFFFFFFFFFFFFFFFFFFFFF AND PUSH20 0xFFFFFFFFFFFFFFFFFFFFFFFFFFFFFFFFFFFFFFFF AND EQ PUSH2 0x8E3 JUMPI PUSH1 0x40 MLOAD PUSH32 0x6EA27C7A00000000000000000000000000000000000000000000000000000000 DUP2 MSTORE PUSH1 0x4 ADD PUSH1 0x40 MLOAD DUP1 SWAP2 SUB SWAP1 REVERT JUMPDEST CALLER PUSH0 PUSH0 DUP4 PUSH2 0xFFFF AND PUSH2 0xFFFF AND DUP2 MSTORE PUSH1 0x20 ADD SWAP1 DUP2 MSTORE PUSH1 0x20 ADD PUSH0 KECCAK256 PUSH0 PUSH2 0x100 EXP DUP2 SLOAD DUP2 PUSH20 0xFFFFFFFFFFFFFFFFFFFFFFFFFFFFFFFFFFFFFFFF MUL NOT AND SWAP1 DUP4 PUSH20 0xFFFFFFFFFFFFFFFFFFFFFFFFFFFFFFFFFFFFFFFF AND MUL OR SWAP1 SSTORE POP DUP2 PUSH1 0x1 PUSH0 DUP4 PUSH2 0xFFFF AND PUSH2 0xFFFF AND DUP2 MSTORE PUSH1 0x20 ADD SWAP1 DUP2 MSTORE PUSH1 0x20 ADD PUSH0 KECCAK256 PUSH0 PUSH2 0x100 EXP DUP2 SLOAD DUP2 PUSH1 0xFF MUL NOT AND SWAP1 DUP4 PUSH1 0xFF AND MUL OR SWAP1 SSTORE POP PUSH1 0x1 PUSH1 0x2 PUSH0 DUP3 DUP3 DUP3 SWAP1 SLOAD SWAP1 PUSH2 0x100 EXP SWAP1 DIV PUSH2 0xFFFF AND ADD SWAP3 POP PUSH2 0x100 EXP DUP2 SLOAD DUP2 PUSH2 0xFFFF MUL NOT AND SWAP1 DUP4 PUSH2 0xFFFF AND MUL OR SWAP1 SSTORE POP PUSH1 0x4 PUSH0 CALLER PUSH20 0xFFFFFFFFFFFFFFFFFFFFFFFFFFFFFFFFFFFFFFFF AND PUSH20 0xFFFFFFFFFFFFFFFFFFFFFFFFFFFFFFFFFFFFFFFF AND DUP2 MSTORE PUSH1 0x20 ADD SWAP1 DUP2 MSTORE PUSH1 0x20 ADD PUSH0 KECCAK256 PUSH0 SWAP1 SLOAD SWAP1 PUSH2 0x100 EXP SWAP1 DIV PUSH1 0xFF AND PUSH2 0xA95 JUMPI PUSH1 0x1 PUSH1 0x4 PUSH0 CALLER PUSH20 0xFFFFFFFFFFFFFFFFFFFFFFFFFFFFFFFFFFFFFFFF AND PUSH20 0xFFFFFFFFFFFFFFFFFFFFFFFFFFFFFFFFFFFFFFFF AND DUP2 MSTORE PUSH1 0x20 ADD SWAP1 DUP2 MSTORE PUSH1 0x20 ADD PUSH0 KECCAK256 PUSH0 PUSH2 0x100 EXP DUP2 SLOAD DUP2 PUSH1 0xFF MUL NOT AND SWAP1 DUP4 ISZERO ISZERO MUL OR SWAP1 SSTORE POP DUP1 PUSH1 0x5 PUSH0 CALLER PUSH20 0xFFFFFFFFFFFFFFFFFFFFFFFFFFFFFFFFFFFFFFFF AND PUSH20 0xFFFFFFFFFFFFFFFFFFFFFFFFFFFFFFFFFFFFFFFF AND DUP2 MSTORE PUSH1 0x20 ADD SWAP1 DUP2 MSTORE PUSH1 0x20 ADD PUSH0 KECCAK256 PUSH0 PUSH2 0x100 EXP DUP2 SLOAD DUP2 PUSH2 0xFFFF MUL NOT AND SWAP1 DUP4 PUSH2 0xFFFF AND MUL OR SWAP1 SSTORE POP JUMPDEST CALLER PUSH20 0xFFFFFFFFFFFFFFFFFFFFFFFFFFFFFFFFFFFFFFFF AND PUSH32 0xF74C0D8DC37D4EE59FDF22F38ECCB3460E1801969D17B692C19E94F810175F47 DUP6 DUP6 DUP6 PUSH1 0x40 MLOAD PUSH2 0xADF SWAP4 SWAP3 SWAP2 SWAP1 PUSH2 0x1052 JUMP JUMPDEST PUSH1 0x40 MLOAD DUP1 SWAP2 SUB SWAP1 LOG2 POP POP POP POP JUMP JUMPDEST PUSH1 0x4 PUSH1 0x20 MSTORE DUP1 PUSH0 MSTORE PUSH1 0x40 PUSH0 KECCAK256 PUSH0 SWAP2 POP SLOAD SWAP1 PUSH2 0x100 EXP SWAP1 DIV PUSH1 0xFF AND DUP2 JUMP JUMPDEST PUSH0 PUSH1 0x64 PUSH2 0xFFFF AND DUP4 PUSH1 0xFF AND LT ISZERO DUP1 PUSH2 0xB2A JUMPI POP PUSH1 0x64 PUSH2 0xFFFF AND DUP3 PUSH1 0xFF AND LT ISZERO JUMPDEST ISZERO PUSH2 0xB61 JUMPI PUSH1 0x40 MLOAD PUSH32 0xB4120F1400000000000000000000000000000000000000000000000000000000 DUP2 MSTORE PUSH1 0x4 ADD PUSH1 0x40 MLOAD DUP1 SWAP2 SUB SWAP1 REVERT JUMPDEST PUSH0 PUSH0 PUSH2 0xB6D DUP6 DUP6 PUSH2 0xBCF JUMP JUMPDEST PUSH2 0xFFFF AND PUSH2 0xFFFF AND DUP2 MSTORE PUSH1 0x20 ADD SWAP1 DUP2 MSTORE PUSH1 0x20 ADD PUSH0 KECCAK256 PUSH0 SWAP1 SLOAD SWAP1 PUSH2 0x100 EXP SWAP1 DIV PUSH20 0xFFFFFFFFFFFFFFFFFFFFFFFFFFFFFFFFFFFFFFFF AND SWAP1 POP SWAP3 SWAP2 POP POP JUMP JUMPDEST PUSH0 PUSH0 PUSH1 0x64 DUP4 PUSH2 0xBB9 SWAP2 SWAP1 PUSH2 0x10B4 JUMP JUMPDEST SWAP2 POP PUSH1 0x64 DUP4 PUSH2 0xBC8 SWAP2 SWAP1 PUSH2 0x10E4 JUMP JUMPDEST SWAP1 POP SWAP2 POP SWAP2 JUMP JUMPDEST PUSH0 DUP2 PUSH1 0xFF AND PUSH1 0x64 DUP5 PUSH1 0xFF AND PUSH2 0xBE4 SWAP2 SWAP1 PUSH2 0xF9A JUMP JUMPDEST PUSH2 0xBEE SWAP2 SWAP1 PUSH2 0x1114 JUMP JUMPDEST SWAP1 POP SWAP3 SWAP2 POP POP JUMP JUMPDEST PUSH0 DUP2 SWAP1 POP SWAP2 SWAP1 POP JUMP JUMPDEST PUSH2 0xC08 DUP2 PUSH2 0xBF6 JUMP JUMPDEST DUP3 MSTORE POP POP JUMP JUMPDEST PUSH0 PUSH1 0x20 DUP3 ADD SWAP1 POP PUSH2 0xC21 PUSH0 DUP4 ADD DUP5 PUSH2 0xBFF JUMP JUMPDEST SWAP3 SWAP2 POP POP JUMP JUMPDEST PUSH0 PUSH0 REVERT JUMPDEST PUSH0 PUSH20 0xFFFFFFFFFFFFFFFFFFFFFFFFFFFFFFFFFFFFFFFF DUP3 AND SWAP1 POP SWAP2 SWAP1 POP JUMP JUMPDEST PUSH0 PUSH2 0xC54 DUP3 PUSH2 0xC2B JUMP JUMPDEST SWAP1 POP SWAP2 SWAP1 POP JUMP JUMPDEST PUSH2 0xC64 DUP2 PUSH2 0xC4A JUMP JUMPDEST DUP2 EQ PUSH2 0xC6E JUMPI PUSH0 PUSH0 REVERT JUMPDEST POP JUMP JUMPDEST PUSH0 DUP2 CALLDATALOAD SWAP1 POP PUSH2 0xC7F DUP2 PUSH2 0xC5B JUMP JUMPDEST SWAP3 SWAP2 POP POP JUMP JUMPDEST PUSH0 PUSH1 0x20 DUP3 DUP5 SUB SLT ISZERO PUSH2 0xC9A JUMPI PUSH2 0xC99 PUSH2 0xC27 JUMP JUMPDEST JUMPDEST PUSH0 PUSH2 0xCA7 DUP5 DUP3 DUP6 ADD PUSH2 0xC71 JUMP JUMPDEST SWAP2 POP POP SWAP3 SWAP2 POP POP JUMP JUMPDEST PUSH0 DUP2 ISZERO ISZERO SWAP1 POP SWAP2 SWAP1 POP JUMP JUMPDEST PUSH2 0xCC4 DUP2 PUSH2 0xCB0 JUMP JUMPDEST DUP3 MSTORE POP POP JUMP JUMPDEST PUSH0 PUSH1 0xFF DUP3 AND SWAP1 POP SWAP2 SWAP1 POP JUMP JUMPDEST PUSH2 0xCDF DUP2 PUSH2 0xCCA JUMP JUMPDEST DUP3 MSTORE POP POP JUMP JUMPDEST PUSH0 PUSH1 0x80 DUP3 ADD SWAP1 POP PUSH2 0xCF8 PUSH0 DUP4 ADD DUP8 PUSH2 0xCBB JUMP JUMPDEST PUSH2 0xD05 PUSH1 0x20 DUP4 ADD DUP7 PUSH2 0xCD6 JUMP JUMPDEST PUSH2 0xD12 PUSH1 0x40 DUP4 ADD DUP6 PUSH2 0xCD6 JUMP JUMPDEST PUSH2 0xD1F PUSH1 0x60 DUP4 ADD DUP5 PUSH2 0xCD6 JUMP JUMPDEST SWAP6 SWAP5 POP POP POP POP POP JUMP JUMPDEST PUSH2 0xD31 DUP2 PUSH2 0xCCA JUMP JUMPDEST DUP2 EQ PUSH2 0xD3B JUMPI PUSH0 PUSH0 REVERT JUMPDEST POP JUMP JUMPDEST PUSH0 DUP2 CALLDATALOAD SWAP1 POP PUSH2 0xD4C DUP2 PUSH2 0xD28 JUMP JUMPDEST SWAP3 SWAP2 POP POP JUMP JUMPDEST PUSH0 PUSH0 PUSH1 0x40 DUP4 DUP6 SUB SLT ISZERO PUSH2 0xD68 JUMPI PUSH2 0xD67 PUSH2 0xC27 JUMP JUMPDEST JUMPDEST PUSH0 PUSH2 0xD75 DUP6 DUP3 DUP7 ADD PUSH2 0xD3E JUMP JUMPDEST SWAP3 POP POP PUSH1 0x20 PUSH2 0xD86 DUP6 DUP3 DUP7 ADD PUSH2 0xD3E JUMP JUMPDEST SWAP2 POP POP SWAP3 POP SWAP3 SWAP1 POP JUMP JUMPDEST PUSH0 PUSH1 0x20 DUP3 ADD SWAP1 POP PUSH2 0xDA3 PUSH0 DUP4 ADD DUP5 PUSH2 0xCBB JUMP JUMPDEST SWAP3 SWAP2 POP POP JUMP JUMPDEST PUSH0 PUSH2 0xFFFF DUP3 AND SWAP1 POP SWAP2 SWAP1 POP JUMP JUMPDEST PUSH2 0xDBF DUP2 PUSH2 0xDA9 JUMP JUMPDEST DUP2 EQ PUSH2 0xDC9 JUMPI PUSH0 PUSH0 REVERT JUMPDEST POP JUMP JUMPDEST PUSH0 DUP2 CALLDATALOAD SWAP1 POP PUSH2 0xDDA DUP2 PUSH2 0xDB6 JUMP JUMPDEST SWAP3 SWAP2 POP POP JUMP JUMPDEST PUSH0 PUSH1 0x20 DUP3 DUP5 SUB SLT ISZERO PUSH2 0xDF5 JUMPI PUSH2 0xDF4 PUSH2 0xC27 JUMP JUMPDEST JUMPDEST PUSH0 PUSH2 0xE02 DUP5 DUP3 DUP6 ADD PUSH2 0xDCC JUMP JUMPDEST SWAP2 POP POP SWAP3 SWAP2 POP POP JUMP JUMPDEST PUSH0 PUSH1 0x20 DUP3 ADD SWAP1 POP PUSH2 0xE1E PUSH0 DUP4 ADD DUP5 PUSH2 0xCD6 JUMP JUMPDEST SWAP3 SWAP2 POP POP JUMP JUMPDEST PUSH2 0xE2D DUP2 PUSH2 0xDA9 JUMP JUMPDEST DUP3 MSTORE POP POP JUMP JUMPDEST PUSH0 PUSH1 0x20 DUP3 ADD SWAP1 POP PUSH2 0xE46 PUSH0 DUP4 ADD DUP5 PUSH2 0xE24 JUMP JUMPDEST SWAP3 SWAP2 POP POP JUMP JUMPDEST PUSH2 0xE55 DUP2 PUSH2 0xC4A JUMP JUMPDEST DUP3 MSTORE POP POP JUMP JUMPDEST PUSH0 PUSH1 0x60 DUP3 ADD SWAP1 POP PUSH2 0xE6E PUSH0 DUP4 ADD DUP7 PUSH2 0xCBB JUMP JUMPDEST PUSH2 0xE7B PUSH1 0x20 DUP4 ADD DUP6 PUSH2 0xE4C JUMP JUMPDEST PUSH2 0xE88 PUSH1 0x40 DUP4 ADD DUP5 PUSH2 0xCD6 JUMP JUMPDEST SWAP5 SWAP4 POP POP POP POP JUMP JUMPDEST PUSH0 PUSH1 0x20 DUP3 ADD SWAP1 POP PUSH2 0xEA3 PUSH0 DUP4 ADD DUP5 PUSH2 0xE4C JUMP JUMPDEST SWAP3 SWAP2 POP POP JUMP JUMPDEST PUSH0 DUP2 SWAP1 POP SWAP2 SWAP1 POP JUMP JUMPDEST PUSH0 PUSH2 0xECC PUSH2 0xEC7 PUSH2 0xEC2 DUP5 PUSH2 0xC2B JUMP JUMPDEST PUSH2 0xEA9 JUMP JUMPDEST PUSH2 0xC2B JUMP JUMPDEST SWAP1 POP SWAP2 SWAP1 POP JUMP JUMPDEST PUSH0 PUSH2 0xEDD DUP3 PUSH2 0xEB2 JUMP JUMPDEST SWAP1 POP SWAP2 SWAP1 POP JUMP JUMPDEST PUSH0 PUSH2 0xEEE DUP3 PUSH2 0xED3 JUMP JUMPDEST SWAP1 POP SWAP2 SWAP1 POP JUMP JUMPDEST PUSH2 0xEFE DUP2 PUSH2 0xEE4 JUMP JUMPDEST DUP3 MSTORE POP POP JUMP JUMPDEST PUSH0 PUSH1 0x20 DUP3 ADD SWAP1 POP PUSH2 0xF17 PUSH0 DUP4 ADD DUP5 PUSH2 0xEF5 JUMP JUMPDEST SWAP3 SWAP2 POP POP JUMP JUMPDEST PUSH0 PUSH0 PUSH0 PUSH1 0x60 DUP5 DUP7 SUB SLT ISZERO PUSH2 0xF34 JUMPI PUSH2 0xF33 PUSH2 0xC27 JUMP JUMPDEST JUMPDEST PUSH0 PUSH2 0xF41 DUP7 DUP3 DUP8 ADD PUSH2 0xD3E JUMP JUMPDEST SWAP4 POP POP PUSH1 0x20 PUSH2 0xF52 DUP7 DUP3 DUP8 ADD PUSH2 0xD3E JUMP JUMPDEST SWAP3 POP POP PUSH1 0x40 PUSH2 0xF63 DUP7 DUP3 DUP8 ADD PUSH2 0xD3E JUMP JUMPDEST SWAP2 POP POP SWAP3 POP SWAP3 POP SWAP3 JUMP JUMPDEST PUSH32 0x4E487B7100000000000000000000000000000000000000000000000000000000 PUSH0 MSTORE PUSH1 0x11 PUSH1 0x4 MSTORE PUSH1 0x24 PUSH0 REVERT JUMPDEST PUSH0 PUSH2 0xFA4 DUP3 PUSH2 0xDA9 JUMP JUMPDEST SWAP2 POP PUSH2 0xFAF DUP4 PUSH2 0xDA9 JUMP JUMPDEST SWAP3 POP DUP3 DUP3 MUL PUSH2 0xFBD DUP2 PUSH2 0xDA9 JUMP JUMPDEST SWAP2 POP DUP1 DUP3 EQ PUSH2 0xFCF JUMPI PUSH2 0xFCE PUSH2 0xF6D JUMP JUMPDEST JUMPDEST POP SWAP3 SWAP2 POP POP JUMP JUMPDEST PUSH0 PUSH1 0x40 DUP3 ADD SWAP1 POP PUSH2 0xFE9 PUSH0 DUP4 ADD DUP6 PUSH2 0xBFF JUMP JUMPDEST PUSH2 0xFF6 PUSH1 0x20 DUP4 ADD DUP5 PUSH2 0xBFF JUMP JUMPDEST SWAP4 SWAP3 POP POP POP JUMP JUMPDEST PUSH2 0x1006 DUP2 PUSH2 0xCB0 JUMP JUMPDEST DUP2 EQ PUSH2 0x1010 JUMPI PUSH0 PUSH0 REVERT JUMPDEST POP JUMP JUMPDEST PUSH0 DUP2 MLOAD SWAP1 POP PUSH2 0x1021 DUP2 PUSH2 0xFFD JUMP JUMPDEST SWAP3 SWAP2 POP POP JUMP JUMPDEST PUSH0 PUSH1 0x20 DUP3 DUP5 SUB SLT ISZERO PUSH2 0x103C JUMPI PUSH2 0x103B PUSH2 0xC27 JUMP JUMPDEST JUMPDEST PUSH0 PUSH2 0x1049 DUP5 DUP3 DUP6 ADD PUSH2 0x1013 JUMP JUMPDEST SWAP2 POP POP SWAP3 SWAP2 POP POP JUMP JUMPDEST PUSH0 PUSH1 0x60 DUP3 ADD SWAP1 POP PUSH2 0x1065 PUSH0 DUP4 ADD DUP7 PUSH2 0xCD6 JUMP JUMPDEST PUSH2 0x1072 PUSH1 0x20 DUP4 ADD DUP6 PUSH2 0xCD6 JUMP JUMPDEST PUSH2 0x107F PUSH1 0x40 DUP4 ADD DUP5 PUSH2 0xCD6 JUMP JUMPDEST SWAP5 SWAP4 POP POP POP POP JUMP JUMPDEST PUSH32 0x4E487B7100000000000000000000000000000000000000000000000000000000 PUSH0 MSTORE PUSH1 0x12 PUSH1 0x4 MSTORE PUSH1 0x24 PUSH0 REVERT JUMPDEST PUSH0 PUSH2 0x10BE DUP3 PUSH2 0xDA9 JUMP JUMPDEST SWAP2 POP PUSH2 0x10C9 DUP4 PUSH2 0xDA9 JUMP JUMPDEST SWAP3 POP DUP3 PUSH2 0x10D9 JUMPI PUSH2 0x10D8 PUSH2 0x1087 JUMP JUMPDEST JUMPDEST DUP3 DUP3 DIV SWAP1 POP SWAP3 SWAP2 POP POP JUMP JUMPDEST PUSH0 PUSH2 0x10EE DUP3 PUSH2 0xDA9 JUMP JUMPDEST SWAP2 POP PUSH2 0x10F9 DUP4 PUSH2 0xDA9 JUMP JUMPDEST SWAP3 POP DUP3 PUSH2 0x1109 JUMPI PUSH2 0x1108 PUSH2 0x1087 JUMP JUMPDEST JUMPDEST DUP3 DUP3 MOD SWAP1 POP SWAP3 SWAP2 POP POP JUMP JUMPDEST PUSH0 PUSH2 0x111E DUP3 PUSH2 0xDA9 JUMP JUMPDEST SWAP2 POP PUSH2 0x1129 DUP4 PUSH2 0xDA9 JUMP JUMPDEST SWAP3 POP DUP3 DUP3 ADD SWAP1 POP PUSH2 0xFFFF DUP2 GT ISZERO PUSH2 0x1143 JUMPI PUSH2 0x1142 PUSH2 0xF6D JUMP JUMPDEST JUMPDEST SWAP3 SWAP2 POP POP JUMP INVALID LOG2 PUSH5 0x6970667358 0x22 SLT KECCAK256 PUSH8 0xE6D21B1C0AC51DEF 0x29 TLOAD SWAP5 SDIV 0xA6 LOG0 EXTCODECOPY 0xD6 SHR RETURN PUSH24 0x4A84F88FAE4700983E97C57664736F6C634300081E003300 "
		},
		"gasEstimates": {
			"creation": {
				"codeDepositCost": "895800",
				"executionCost": "infinite",
				"totalCost": "infinite"
			},
			"external": {
				"DEFS()": "infinite",
				"GRID_SIZE()": "353",
				"TOTAL_CELLS()": "infinite",
				"getCell(uint8,uint8)": "infinite",
				"getFirstCell(address)": "infinite",
				"hasAnyCell(address)": "2899",
				"isOccupied(uint8,uint8)": "infinite",
				"occupiedCount()": "2577",
				"occupyAt(uint8,uint8,uint8)": "infinite",
				"occupyFeeWei()": "2426",
				"ownerOf(uint8,uint8)": "infinite",
				"ownerOfCell(uint16)": "2877",
				"resourceOfCell(uint16)": "2858"
			},
			"internal": {
				"_pack(uint8,uint8)": "infinite",
				"_unpack(uint16)": "infinite"
			}
		},
		"methodIdentifiers": {
			"DEFS()": "7197cc7d",
			"GRID_SIZE()": "7fc4eda8",
			"TOTAL_CELLS()": "4ae73cec",
			"getCell(uint8,uint8)": "4f4fdf80",
			"getFirstCell(address)": "2a748961",
			"hasAnyCell(address)": "dc6dfab3",
			"isOccupied(uint8,uint8)": "3234c956",
			"occupiedCount()": "4eef2707",
			"occupyAt(uint8,uint8,uint8)": "d84cf3e7",
			"occupyFeeWei()": "028b32c7",
			"ownerOf(uint8,uint8)": "f894892d",
			"ownerOfCell(uint16)": "6445a74d",
			"resourceOfCell(uint16)": "3bc298a9"
		}
	},
	"abi": [
		{
			"inputs": [
				{
					"internalType": "address",
					"name": "defsAddr",
					"type": "address"
				},
				{
					"internalType": "uint256",
					"name": "_occupyFeeWei",
					"type": "uint256"
				}
			],
			"stateMutability": "nonpayable",
			"type": "constructor"
		},
		{
			"inputs": [],
			"name": "AlreadyOccupied",
			"type": "error"
		},
		{
			"inputs": [
				{
					"internalType": "uint8",
					"name": "provided",
					"type": "uint8"
				}
			],
			"name": "InvalidResourceType",
			"type": "error"
		},
		{
			"inputs": [],
			"name": "OutOfBounds",
			"type": "error"
		},
		{
			"inputs": [
				{
					"internalType": "uint256",
					"name": "sent",
					"type": "uint256"
				},
				{
					"internalType": "uint256",
					"name": "required",
					"type": "uint256"
				}
			],
			"name": "WrongFee",
			"type": "error"
		},
		{
			"anonymous": false,
			"inputs": [
				{
					"indexed": false,
					"internalType": "uint8",
					"name": "x",
					"type": "uint8"
				},
				{
					"indexed": false,
					"internalType": "uint8",
					"name": "y",
					"type": "uint8"
				},
				{
					"indexed": true,
					"internalType": "address",
					"name": "owner",
					"type": "address"
				},
				{
					"indexed": false,
					"internalType": "uint8",
					"name": "resourceId",
					"type": "uint8"
				}
			],
			"name": "CellOccupied",
			"type": "event"
		},
		{
			"inputs": [],
			"name": "DEFS",
			"outputs": [
				{
					"internalType": "contract IPerseusDefs",
					"name": "",
					"type": "address"
				}
			],
			"stateMutability": "view",
			"type": "function"
		},
		{
			"inputs": [],
			"name": "GRID_SIZE",
			"outputs": [
				{
					"internalType": "uint16",
					"name": "",
					"type": "uint16"
				}
			],
			"stateMutability": "view",
			"type": "function"
		},
		{
			"inputs": [],
			"name": "TOTAL_CELLS",
			"outputs": [
				{
					"internalType": "uint16",
					"name": "",
					"type": "uint16"
				}
			],
			"stateMutability": "view",
			"type": "function"
		},
		{
			"inputs": [
				{
					"internalType": "uint8",
					"name": "x",
					"type": "uint8"
				},
				{
					"internalType": "uint8",
					"name": "y",
					"type": "uint8"
				}
			],
			"name": "getCell",
			"outputs": [
				{
					"internalType": "bool",
					"name": "exists",
					"type": "bool"
				},
				{
					"internalType": "address",
					"name": "owner",
					"type": "address"
				},
				{
					"internalType": "uint8",
					"name": "resourceId",
					"type": "uint8"
				}
			],
			"stateMutability": "view",
			"type": "function"
		},
		{
			"inputs": [
				{
					"internalType": "address",
					"name": "user",
					"type": "address"
				}
			],
			"name": "getFirstCell",
			"outputs": [
				{
					"internalType": "bool",
					"name": "has",
					"type": "bool"
				},
				{
					"internalType": "uint8",
					"name": "x",
					"type": "uint8"
				},
				{
					"internalType": "uint8",
					"name": "y",
					"type": "uint8"
				},
				{
					"internalType": "uint8",
					"name": "resourceId",
					"type": "uint8"
				}
			],
			"stateMutability": "view",
			"type": "function"
		},
		{
			"inputs": [
				{
					"internalType": "address",
					"name": "",
					"type": "address"
				}
			],
			"name": "hasAnyCell",
			"outputs": [
				{
					"internalType": "bool",
					"name": "",
					"type": "bool"
				}
			],
			"stateMutability": "view",
			"type": "function"
		},
		{
			"inputs": [
				{
					"internalType": "uint8",
					"name": "x",
					"type": "uint8"
				},
				{
					"internalType": "uint8",
					"name": "y",
					"type": "uint8"
				}
			],
			"name": "isOccupied",
			"outputs": [
				{
					"internalType": "bool",
					"name": "",
					"type": "bool"
				}
			],
			"stateMutability": "view",
			"type": "function"
		},
		{
			"inputs": [],
			"name": "occupiedCount",
			"outputs": [
				{
					"internalType": "uint16",
					"name": "",
					"type": "uint16"
				}
			],
			"stateMutability": "view",
			"type": "function"
		},
		{
			"inputs": [
				{
					"internalType": "uint8",
					"name": "x",
					"type": "uint8"
				},
				{
					"internalType": "uint8",
					"name": "y",
					"type": "uint8"
				},
				{
					"internalType": "uint8",
					"name": "chosenResourceId",
					"type": "uint8"
				}
			],
			"name": "occupyAt",
			"outputs": [],
			"stateMutability": "payable",
			"type": "function"
		},
		{
			"inputs": [],
			"name": "occupyFeeWei",
			"outputs": [
				{
					"internalType": "uint256",
					"name": "",
					"type": "uint256"
				}
			],
			"stateMutability": "view",
			"type": "function"
		},
		{
			"inputs": [
				{
					"internalType": "uint8",
					"name": "x",
					"type": "uint8"
				},
				{
					"internalType": "uint8",
					"name": "y",
					"type": "uint8"
				}
			],
			"name": "ownerOf",
			"outputs": [
				{
					"internalType": "address",
					"name": "",
					"type": "address"
				}
			],
			"stateMutability": "view",
			"type": "function"
		},
		{
			"inputs": [
				{
					"internalType": "uint16",
					"name": "",
					"type": "uint16"
				}
			],
			"name": "ownerOfCell",
			"outputs": [
				{
					"internalType": "address",
					"name": "",
					"type": "address"
				}
			],
			"stateMutability": "view",
			"type": "function"
		},
		{
			"inputs": [
				{
					"internalType": "uint16",
					"name": "",
					"type": "uint16"
				}
			],
			"name": "resourceOfCell",
			"outputs": [
				{
					"internalType": "uint8",
					"name": "",
					"type": "uint8"
				}
			],
			"stateMutability": "view",
			"type": "function"
		}
	]
}